MAIN:
block.nTime = 1424973624 
block.nNonce = 753343 
block.GetHash = 5397c27086852e9b6d90231a899bf4a20aec7f374130be6b364ae0ffa3d103f1
CBlock(hash=5397c27086852e9b6d90231a899bf4a20aec7f374130be6b364ae0ffa3d103f1, input=010000000000000000000000000000000000000000000000000000000000000000000000a630027c98a5bb91972b6e87027d167cafbfcd8ed74e0f297b391900babe3990385fef54f0ff0f1ebf7e0b00, PoW=000009d04d75c037539613779d7bd97d486c427f391bae76da8a3a6578994b06, ver=1, hashPrevBlock=0000000000000000000000000000000000000000000000000000000000000000, hashMerkleRoot=9039beba0019397b290f4ed78ecdbfaf7c167d02876e2b9791bba5987c0230a6, nTime=1424973624, nBits=1e0ffff0, nNonce=753343, vtx=1, vchBlockSig=)
Coinbase(hash=9039beba0019397b290f4ed78ecdbfaf7c167d02876e2b9791bba5987c0230a6, nTime=1424973624, ver=1, vin.size=1, vout.size=1, nLockTime=0)
CTxIn(COutPoint(0000000000000000000000000000000000000000000000000000000000000000, 4294967295), coinbase 04ffff001d0104124d616b65204c6f76652c206e6f7420576172)
CTxOut(nValue=1.00000000, scriptPubKey=04678afdb0fe5548271967f1a67130)
vMerkleTree: 9039beba0019397b290f4ed78ecdbfaf7c167d02876e2b9791bba5987c0230a6 
  
  
  
TESTNET:

block.nTime = 1424973628 
block.nNonce = 397744 
block.GetHash = 61d256c870cb1482691e26c9610d2c324c0ff7453135414682b432806049c215
CBlock(hash=61d256c870cb1482691e26c9610d2c324c0ff7453135414682b432806049c215, input=010000000000000000000000000000000000000000000000000000000000000000000000a630027c98a5bb91972b6e87027d167cafbfcd8ed74e0f297b391900babe39903c5fef54f0ff0f1eb0110600, PoW=000000f21bfb9ad2aaae671db6acd919289ce498b98e01189c511a86d08eca48, ver=1, hashPrevBlock=0000000000000000000000000000000000000000000000000000000000000000, hashMerkleRoot=9039beba0019397b290f4ed78ecdbfaf7c167d02876e2b9791bba5987c0230a6, nTime=1424973628, nBits=1e0ffff0, nNonce=397744, vtx=1, vchBlockSig=)
Coinbase(hash=9039beba0019397b290f4ed78ecdbfaf7c167d02876e2b9791bba5987c0230a6, nTime=1424973624, ver=1, vin.size=1, vout.size=1, nLockTime=0)
CTxIn(COutPoint(0000000000000000000000000000000000000000000000000000000000000000, 4294967295), coinbase 04ffff001d0104124d616b65204c6f76652c206e6f7420576172)
CTxOut(nValue=1.00000000, scriptPubKey=04678afdb0fe5548271967f1a67130)
vMerkleTree: 9039beba0019397b290f4ed78ecdbfaf7c167d02876e2b9791bba5987c0230a6 